{
  "_format": "hh-sol-artifact-1",
  "contractName": "Vault",
  "sourceName": "contracts/Vault.sol",
  "abi": [
    {
      "inputs": [
        {
          "internalType": "address",
          "name": "oUSDContract",
          "type": "address"
        }
      ],
      "stateMutability": "nonpayable",
      "type": "constructor"
    },
    {
      "anonymous": false,
      "inputs": [
        {
          "indexed": true,
          "internalType": "address",
          "name": "previousOwner",
          "type": "address"
        },
        {
          "indexed": true,
          "internalType": "address",
          "name": "newOwner",
          "type": "address"
        }
      ],
      "name": "OwnershipTransferred",
      "type": "event"
    },
    {
      "inputs": [
        {
          "internalType": "address",
          "name": "from",
          "type": "address"
        },
        {
          "internalType": "uint256",
          "name": "amount",
          "type": "uint256"
        }
      ],
      "name": "depositFunds",
      "outputs": [],
      "stateMutability": "nonpayable",
      "type": "function"
    },
    {
      "inputs": [],
      "name": "getTotalySupply",
      "outputs": [
        {
          "internalType": "uint256",
          "name": "",
          "type": "uint256"
        }
      ],
      "stateMutability": "nonpayable",
      "type": "function"
    },
    {
      "inputs": [],
      "name": "owner",
      "outputs": [
        {
          "internalType": "address",
          "name": "",
          "type": "address"
        }
      ],
      "stateMutability": "view",
      "type": "function"
    },
    {
      "inputs": [],
      "name": "renounceOwnership",
      "outputs": [],
      "stateMutability": "nonpayable",
      "type": "function"
    },
    {
      "inputs": [
        {
          "internalType": "address",
          "name": "newOwner",
          "type": "address"
        }
      ],
      "name": "transferOwnership",
      "outputs": [],
      "stateMutability": "nonpayable",
      "type": "function"
    },
    {
      "inputs": [
        {
          "internalType": "address",
          "name": "to",
          "type": "address"
        },
        {
          "internalType": "uint256",
          "name": "amount",
          "type": "uint256"
        }
      ],
      "name": "witdrawFunds",
      "outputs": [],
      "stateMutability": "nonpayable",
      "type": "function"
    }
  ],
  "bytecode": "0x60806040523480156200001157600080fd5b506040516200120d3803806200120d833981810160405281019062000037919062000182565b620000576200004b6200009f60201b60201c565b620000a760201b60201c565b80600160006101000a81548173ffffffffffffffffffffffffffffffffffffffff021916908373ffffffffffffffffffffffffffffffffffffffff16021790555050620001fc565b600033905090565b60008060009054906101000a900473ffffffffffffffffffffffffffffffffffffffff169050816000806101000a81548173ffffffffffffffffffffffffffffffffffffffff021916908373ffffffffffffffffffffffffffffffffffffffff1602179055508173ffffffffffffffffffffffffffffffffffffffff168173ffffffffffffffffffffffffffffffffffffffff167f8be0079c531659141344cd1fd0a4f28419497f9722a3daafe3b4186f6b6457e060405160405180910390a35050565b6000815190506200017c81620001e2565b92915050565b6000602082840312156200019557600080fd5b6000620001a5848285016200016b565b91505092915050565b6000620001bb82620001c2565b9050919050565b600073ffffffffffffffffffffffffffffffffffffffff82169050919050565b620001ed81620001ae565b8114620001f957600080fd5b50565b611001806200020c6000396000f3fe608060405234801561001057600080fd5b50600436106100625760003560e01c80635d0bddaf14610067578063715018a6146100835780638da5cb5b1461008d578063921b004b146100ab578063e7cb27b6146100c7578063f2fde38b146100e5575b600080fd5b610081600480360381019061007c9190610b9c565b610101565b005b61008b61049c565b005b610095610524565b6040516100a29190610cea565b60405180910390f35b6100c560048036038101906100c09190610b9c565b61054d565b005b6100cf610768565b6040516100dc9190610df5565b60405180910390f35b6100ff60048036038101906100fa9190610b73565b610896565b005b61010961098e565b73ffffffffffffffffffffffffffffffffffffffff16610127610524565b73ffffffffffffffffffffffffffffffffffffffff161461017d576040517f08c379a000000000000000000000000000000000000000000000000000000000815260040161017490610dd5565b60405180910390fd5b6102496040518060600160405280602d8152602001610f9f602d9139600160009054906101000a900473ffffffffffffffffffffffffffffffffffffffff1673ffffffffffffffffffffffffffffffffffffffff166370a08231306040518263ffffffff1660e01b81526004016101f49190610cea565b60206040518083038186803b15801561020c57600080fd5b505afa158015610220573d6000803e3d6000fd5b505050506040513d601f19601f820116820180604052508101906102449190610c01565b610996565b80600160009054906101000a900473ffffffffffffffffffffffffffffffffffffffff1673ffffffffffffffffffffffffffffffffffffffff166370a08231306040518263ffffffff1660e01b81526004016102a59190610cea565b60206040518083038186803b1580156102bd57600080fd5b505afa1580156102d1573d6000803e3d6000fd5b505050506040513d601f19601f820116820180604052508101906102f59190610c01565b1015610336576040517f08c379a000000000000000000000000000000000000000000000000000000000815260040161032d90610db5565b60405180910390fd5b600160009054906101000a900473ffffffffffffffffffffffffffffffffffffffff1673ffffffffffffffffffffffffffffffffffffffff1663095ea7b330836040518363ffffffff1660e01b8152600401610393929190610d3c565b602060405180830381600087803b1580156103ad57600080fd5b505af11580156103c1573d6000803e3d6000fd5b505050506040513d601f19601f820116820180604052508101906103e59190610bd8565b50600160009054906101000a900473ffffffffffffffffffffffffffffffffffffffff1673ffffffffffffffffffffffffffffffffffffffff166323b872dd3084846040518463ffffffff1660e01b815260040161044593929190610d05565b602060405180830381600087803b15801561045f57600080fd5b505af1158015610473573d6000803e3d6000fd5b505050506040513d601f19601f820116820180604052508101906104979190610bd8565b505050565b6104a461098e565b73ffffffffffffffffffffffffffffffffffffffff166104c2610524565b73ffffffffffffffffffffffffffffffffffffffff1614610518576040517f08c379a000000000000000000000000000000000000000000000000000000000815260040161050f90610dd5565b60405180910390fd5b6105226000610a32565b565b60008060009054906101000a900473ffffffffffffffffffffffffffffffffffffffff16905090565b61055561098e565b73ffffffffffffffffffffffffffffffffffffffff16610573610524565b73ffffffffffffffffffffffffffffffffffffffff16146105c9576040517f08c379a00000000000000000000000000000000000000000000000000000000081526004016105c090610dd5565b60405180910390fd5b6106b26040518060400160405280601481526020017f62616c616e6365206f6620757365722069733a20000000000000000000000000815250600160009054906101000a900473ffffffffffffffffffffffffffffffffffffffff1673ffffffffffffffffffffffffffffffffffffffff166370a08231856040518263ffffffff1660e01b815260040161065d9190610cea565b60206040518083038186803b15801561067557600080fd5b505afa158015610689573d6000803e3d6000fd5b505050506040513d601f19601f820116820180604052508101906106ad9190610c01565b610996565b600160009054906101000a900473ffffffffffffffffffffffffffffffffffffffff1673ffffffffffffffffffffffffffffffffffffffff166323b872dd8330846040518463ffffffff1660e01b815260040161071193929190610d05565b602060405180830381600087803b15801561072b57600080fd5b505af115801561073f573d6000803e3d6000fd5b505050506040513d601f19601f820116820180604052508101906107639190610bd8565b505050565b600061077261098e565b73ffffffffffffffffffffffffffffffffffffffff16610790610524565b73ffffffffffffffffffffffffffffffffffffffff16146107e6576040517f08c379a00000000000000000000000000000000000000000000000000000000081526004016107dd90610dd5565b60405180910390fd5b600160009054906101000a900473ffffffffffffffffffffffffffffffffffffffff1673ffffffffffffffffffffffffffffffffffffffff166370a08231306040518263ffffffff1660e01b81526004016108419190610cea565b60206040518083038186803b15801561085957600080fd5b505afa15801561086d573d6000803e3d6000fd5b505050506040513d601f19601f820116820180604052508101906108919190610c01565b905090565b61089e61098e565b73ffffffffffffffffffffffffffffffffffffffff166108bc610524565b73ffffffffffffffffffffffffffffffffffffffff1614610912576040517f08c379a000000000000000000000000000000000000000000000000000000000815260040161090990610dd5565b60405180910390fd5b600073ffffffffffffffffffffffffffffffffffffffff168173ffffffffffffffffffffffffffffffffffffffff161415610982576040517f08c379a000000000000000000000000000000000000000000000000000000000815260040161097990610d95565b60405180910390fd5b61098b81610a32565b50565b600033905090565b610a2e82826040516024016109ac929190610d65565b6040516020818303038152906040527f9710a9d0000000000000000000000000000000000000000000000000000000007bffffffffffffffffffffffffffffffffffffffffffffffffffffffff19166020820180517bffffffffffffffffffffffffffffffffffffffffffffffffffffffff8381831617835250505050610af6565b5050565b60008060009054906101000a900473ffffffffffffffffffffffffffffffffffffffff169050816000806101000a81548173ffffffffffffffffffffffffffffffffffffffff021916908373ffffffffffffffffffffffffffffffffffffffff1602179055508173ffffffffffffffffffffffffffffffffffffffff168173ffffffffffffffffffffffffffffffffffffffff167f8be0079c531659141344cd1fd0a4f28419497f9722a3daafe3b4186f6b6457e060405160405180910390a35050565b60008151905060006a636f6e736f6c652e6c6f679050602083016000808483855afa5050505050565b600081359050610b2e81610f59565b92915050565b600081519050610b4381610f70565b92915050565b600081359050610b5881610f87565b92915050565b600081519050610b6d81610f87565b92915050565b600060208284031215610b8557600080fd5b6000610b9384828501610b1f565b91505092915050565b60008060408385031215610baf57600080fd5b6000610bbd85828601610b1f565b9250506020610bce85828601610b49565b9150509250929050565b600060208284031215610bea57600080fd5b6000610bf884828501610b34565b91505092915050565b600060208284031215610c1357600080fd5b6000610c2184828501610b5e565b91505092915050565b610c3381610e2c565b82525050565b6000610c4482610e10565b610c4e8185610e1b565b9350610c5e818560208601610e74565b610c6781610ea7565b840191505092915050565b6000610c7f602683610e1b565b9150610c8a82610eb8565b604082019050919050565b6000610ca2601983610e1b565b9150610cad82610f07565b602082019050919050565b6000610cc5602083610e1b565b9150610cd082610f30565b602082019050919050565b610ce481610e6a565b82525050565b6000602082019050610cff6000830184610c2a565b92915050565b6000606082019050610d1a6000830186610c2a565b610d276020830185610c2a565b610d346040830184610cdb565b949350505050565b6000604082019050610d516000830185610c2a565b610d5e6020830184610cdb565b9392505050565b60006040820190508181036000830152610d7f8185610c39565b9050610d8e6020830184610cdb565b9392505050565b60006020820190508181036000830152610dae81610c72565b9050919050565b60006020820190508181036000830152610dce81610c95565b9050919050565b60006020820190508181036000830152610dee81610cb8565b9050919050565b6000602082019050610e0a6000830184610cdb565b92915050565b600081519050919050565b600082825260208201905092915050565b6000610e3782610e4a565b9050919050565b60008115159050919050565b600073ffffffffffffffffffffffffffffffffffffffff82169050919050565b6000819050919050565b60005b83811015610e92578082015181840152602081019050610e77565b83811115610ea1576000848401525b50505050565b6000601f19601f8301169050919050565b7f4f776e61626c653a206e6577206f776e657220697320746865207a65726f206160008201527f6464726573730000000000000000000000000000000000000000000000000000602082015250565b7f4e6f7420656e6f7567682066756e647320696e207661756c7400000000000000600082015250565b7f4f776e61626c653a2063616c6c6572206973206e6f7420746865206f776e6572600082015250565b610f6281610e2c565b8114610f6d57600080fd5b50565b610f7981610e3e565b8114610f8457600080fd5b50565b610f9081610e6a565b8114610f9b57600080fd5b5056fe7769746472617746756e64733a2062616c616e6365206f66207661756c74277320616464726573732069733a20a2646970667358221220352257943c469e473481d3950f7f7415682ac553e1e07d53ca8a58e3ae889db564736f6c63430008040033",
  "linkReferences": {},
  "deployedLinkReferences": {}
}